:03000000020AD120
:0C0AD100787FE4F6D8FD7581080208006B
:100A95004469614261792E766E0048656C6C6F2001
:070AA500576F726C64210021
:100ABF00E4FDFCC3ED9FEC9E50070DBD00010C80C3
:010ACF00F234
:010AD0002203
:060A7A00F5A07F017E00E3
:100A8000C3E49FFFE49EF58CEFF58AD28C308DFD98
:040A9000C28DC28CC5
:010A9400223F
:1009AD00AD07ED54F0FF3395E0FEEF7802CEA2E7F0
:1009BD0013CE13D8F84402120A7AED54F0FF339592
:1009CD00E0FEEF7802CEA2E713CE13D8F8F5A07FA4
:1009DD00027E00120A80ED540F25E025E04402F559
:1009ED00A07F01120A80ED540F25E025E0F5A07FD0
:0409FD0002020A8068
:1008CB00AF03AE02120958AA04AB057C007D64AFDE
:0C08DB0003AE02120958EF2430F508FFAC
:1008E700AD07ED54F0FF3395E0FEEF7802CEA2E7B7
:1008F70013CE13D8F84403120A7AED54F0FF339558
:10090700E0FEEF7802CEA2E713CE13D8F84401F544
:10091700A07F027E00120A80ED540F25E025E044F7
:1009270003F5A07F01120A80ED540F25E025E0446E
:0809370001F5A07F02020A8015
:100AAC0012093FFF600C1208E7740129F9E43AFAC5
:030ABC0080EE22A7
:100A400075A0FF7F787E37120A8075A00E75A00C06
:100A50007FD07E20120A8075A00E75A00C7F417E8B
:100A600003120A8075A00E75A00C7F41120A8075D2
:0A0A7000A00A75A0087F41020A8069
:100A0100120A407F281209AD7F287E00120A807FDA
:100A11000C1209AD7F287E00120A807F061209ADF3
:100A21007F287E00120A807F011209AD7FDC7E05DE
:0F0A3100120A807F801209AD7FDC7E05020A80E9
:050ADD00EF4CFEEDFFEF
:010AE20022F1
:10080000758901E4F58CF58A75D555D2B5120A01C2
:100810007BFF7A0A7995120AAC7FC01209AD7F0A74
:100820007E00120ABF7A0A799F120AACC2B5120A78
:100830007C758606E5AA548060FAE4F586E5AA543C
:100840008060FAAF86AB077A00E4F586E5AA5480AB
:1008500060FAAF86AD077C00120A7CD2B553030F55
:100860007A00AF03120ADDAB07AA067C037DE8120B
:100870000958EF2430F5087F8A1209ADAF08120835
:10088000E77C037DE81208CB7C007D641208CB7CFA
:10089000007D0AAF03AE02120958ED1208E27F8F05
:1008A0001209AD7F561208E7E4F508AF08EF33955B
:1008B000E0FEC3EF9432EE64809480400302082C83
:0B08C0007F8D7E20120A80050880E07A
:10093F00BB010689828A83E0225002E722BBFE02B6
:09094F00E32289828A83E49322E9
:10095800BC000BBE0029EF8DF084FFADF022E4CC83
:10096800F875F008EF2FFFEE33FEEC33FCEE9DEC4C
:10097800984005FCEE9DFE0FD5F0E9E4CEFD22ED92
:10098800F8F5F0EE8420D21CFEADF075F008EF2FDC
:10099800FFED33FD4007985006D5F0F222C398FDCD
:0509A8000FD5F0EA226A
:00000001FF
