:030000000208896A
:0C088900787FE4F6D8FD75810E020800AF
:10084200E4F50BF50AF509F508E47F887E13FDFC53
:10085200AB0BAA0AA909A808D31208785017E50B0E
:100862002401F50BE4350AF50AE43509F509E43506
:0508720008F50880D428
:01087700225E
:10080000D287750EFE30872C750C00750D01850E94
:10081000A0120842AF0E7801EF08800123D8FDF541
:100820000E050DE50D7002050CD39408E50C6480EF
:10083000948040DAE4F5A012084275A0FF12084245
:0208400080C076
:10087800EB9FF5F0EA9E42F0E99D42F0E89C45F0D6
:01088800224D
:00000001FF
