:03000000020B6987
:0C0B6900787FE4F6D8FD7581150208B114
:100B2D004469614261792E766E0048656C6C6F2068
:070B3D00576F726C64210088
:100B5700E4FDFCC3ED9FEC9E50070DBD00010C802A
:010B6700F29B
:010B6800226A
:070B110012098D7F287E0010
:100B1800C3E49FFFE49EF58CEFF58AD28C308DFDFF
:040B2800C28DC28C2C
:010B2C0022A6
:10098D00AD07ED54F0FF3395E0FEEF7802CEA2E710
:10099D0013CE13D8F84402F5A07F017E00120B1878
:1009AD00ED54F0FF3395E0FEEF7802CEA2E713CEC3
:1009BD0013D8F8F5A07F027E00120B18ED540F2509
:1009CD00E025E04402F5A07F01120B18ED540F2530
:0A09DD00E025E0F5A07F02020B18F0
:10092F00AD07ED54F0FF3395E0FEEF7802CEA2E76E
:10093F0013CE13D8F84403F5A07F017E00120B18D5
:10094F00ED54F0FF3395E0FEEF7802CEA2E713CE21
:10095F0013D8F84401F5A07F027E00120B18ED5456
:10096F000F25E025E04403F5A07F01120B18ED548D
:0E097F000F25E025E04401F5A07F02020B18D1
:100B4400120A9DFF600C12092F740129F9E43AFA84
:030B540080EE220E
:100A630075A0FF7F787E37120B1875A00E75A00C4A
:100A73007FD07E20120B1875A00E75A00C7F417ECF
:100A830003120B1875A00E75A00C7F41120B18757D
:0A0A9300A00A75A0087F41020B18AD
:100AC800120A637F28120B117F0C120B117F06127A
:100AD8000B117F0112098D7FDC7E05120B187F80B8
:0A0AE80012098D7FDC7E05020B1859
:100AF200C2927F907E01120B18D2927F3A1E120B85
:0E0B020018A292E433FD7F560E120B18AF05B9
:010B100022C2
:100A2800E4FDFCECC3940874809480502BC2927F40
:100A3800057E00120B18D2927F08120B1830920E06
:100A4800ED4401FFA804088002C333D8FCFD7F2EC3
:0A0A58007E00120B180C80CBAF05D6
:010A62002271
:0209E700AD075A
:1009E900E4FCECC39408748094805032A804ED08A8
:1009F9008002C313D8FCFF530701C292EF64017050
:100A09000C7F05FE120B18D2927F36800B7F327E47
:0E0A190000120B18D2927F09120B180C80C429
:010A270022AC
:10080000C2AF120AF2EF70FA7FCC1209E77F4412EE
:1008100009E77F647E00120B18120AF2EF70FA7F6C
:10082000CC1209E77FBE1209E7E4FBEBC394027424
:10083000809480500C120A2874082BF8A6070B80AD
:10084000EAAF09AE08EFFD3395E0FCD3ED9480EC00
:10085000648094805005EEA2E713FE530780EFFDFD
:100860003395E0FCC3ED9480EC648094804004EE0A
:10087000F404FEC3ED9480EC648094804005EEA205
:10088000E713FEEFFD3395E0FCC3ED9480EC64804C
:100890009480400FEEFF3395E0FE7CFF7DFF120A4F
:1008A000B6AE07AF06EF3395E0D2AFEF3395E0FE7B
:0108B0002225
:1008B100758901E4F58CF58A120AC87BFF7A0B79F8
:1008C1002D120B447FC012098D7F0A7E00120B5737
:1008D1007A0B7937120B441208008F12E51275F06A
:1008E1000A8485F013E51275F00A84F51275F00A91
:1008F1008485F014E51275F00A84F515743025131A
:10090100F51374302514F51474302515F5157F8A07
:1009110012098DAF1512092FAF1412092FAF13123F
:0E092100092F7F8E12098D7F4312092F80A9A6
:100A9D00BB010689828A83E0225002E722BBFE0257
:090AAD00E32289828A83E493228A
:100AB600EF8DF0A4A8F0CF8CF0A428CE8DF0A42E54
:020AC600FE220E
:00000001FF
