:030000000208BF34
:0C08BF00787FE4F6D8FD75813002090650
:100ABA005468616E68206F692100456D20636F205C
:100ACA0079657520616E683F007068696D20736F83
:060ADA00206D61793F0070
:100AE00011083132334134353642373839432A30F0
:030AF0002344009C
:100AF400758901758CD8758ACFD28C308DFDC28DE5
:030B0400C28C227E
:0A094B00D2A17F017E007D007C0038
:080955008F288E278D268C25CA
:10095D00E4F52CF52BF52AF529AF28AE27AD26ACFD
:10096D0025AB2CAA2BA92AA829C3120AA9504BE4FE
:10097D00F530F52FF52EF52DE47F64FEFDFCAB3043
:10098D00AA2FA92EA82DC3120AA95017E5302401AC
:10099D00F530E4352FF52FE4352EF52EE4352DF514
:1009AD002D80D5E52C2401F52CE4352BF52BE435E4
:0A09BD002AF52AE43529F529809F68
:0109C700220D
:100A3C00120AF4EF54F0FF3395E0FEEF7802CEA2E9
:100A4C00E713CE13D8F8F5A0C2A012094BC2A17FB0
:0A0A5C00027E007D007C00020955B7
:100A6600120AF4EF54F0FF3395E0FEEF7802CEA2BF
:100A7600E713CE13D8F8F5A0D2A012094BC2A17F76
:0A0A8600027E007D007C000209558D
:100A09008B228A238924AB22AA23A924120A90FFC4
:100A19006020120A66AB22AA23A924120A90C454A0
:100A2900F0FF120A6674012524F524E43523F52321
:030A390080D42244
:1009C8007F1412094F7F02120A3C7F20120A3C7FD3
:1009D80028120A3C7F80120A3C7F0C120A3C7FC016
:1009E800120A3C7F06120A3C7F60120A3C7F011201
:1009F8000A3C7F10120A3C7F80120A3CE4FF020A7C
:010A08003CB1
:10080000E4F5A075B0401209C87BFF7A0A79BA12E4
:100810000A097FC0120A3CE4FF120A3C7BFF7A0AF5
:1008200079C4120A0930B6FD7F01120A3C7F10120A
:100830000A3C7F80120A3CE4FF120A3C7BFF7A0AE2
:1008400079D3120A097FC0120A3CE4FF120A3C75F0
:1008500021FEE4F51AD3E51A94037480948050EFD6
:10086000852180AF217801EF08800123D8FDF52193
:10087000E4F51BD3E51B940374809480503DA2845F
:10088000E433F51CA285E433F51DA286E433F51E9E
:10089000A287E433F51F741C251BF8E67019E51BCD
:1008A00025E025E0251A2408F8E6F5197B007A00F2
:0F08B0007919120A098098051B80B8051A8096DD
:1008CB00020800E493A3F8E493A34003F68001F23B
:1008DB0008DFF48029E493A3F85407240CC8C3332E
:1008EB00C4540F4420C8834004F456800146F6DFFD
:1008FB00E4800B0102040810204080900AE0E47EA3
:10090B00019360BCA3FF543F30E509541FFEE493F1
:10091B00A360010ECF54C025E060A840B8E493A3B8
:10092B00FAE493A3F8E493A3C8C582C8CAC583CAE3
:10093B00F0A3C8C582C8CAC583CADFE9DEE780BE9B
:010AF3000002
:100A9000BB010689828A83E0225002E722BBFE0264
:090AA000E32289828A83E4932297
:100AA900EB9FF5F0EA9E42F0E99D42F0E89C45F0A3
:010AB900221A
:00000001FF
