:03000000020A09E8
:0C0A0900787FE4F6D8FD75810B02080030
:1009CD004469614261792E766E0048656C6C6F20CA
:0709DD00576F726C642100EA
:1009F700E4FDFCC3ED9FEC9E50070DBD00010C808C
:010A0700F2FC
:010A080022CB
:070998001208DA7F287E003F
:10099F00C3E49FFFE49EF58CEFF58AD28C308DFD7A
:0409AF00C28DC28CA7
:0109B3002221
:1008DA00AD07ED54F0FF3395E0FEEF7802CEA2E7C4
:1008EA0013CE13D8F84402F5A07F017E0012099FA7
:1008FA00ED54F0FF3395E0FEEF7802CEA2E713CE77
:10090A0013D8F8F5A07F027E0012099FED540F2537
:10091A00E025E04402F5A07F0112099FED540F255E
:0A092A00E025E0F5A07F0202099F1E
:10087C00AD07ED54F0FF3395E0FEEF7802CEA2E722
:10088C0013CE13D8F84403F5A07F017E0012099F04
:10089C00ED54F0FF3395E0FEEF7802CEA2E713CED5
:1008AC0013D8F84401F5A07F027E0012099FED5485
:1008BC000F25E025E04403F5A07F0112099FED54BC
:0E08CC000F25E025E04401F5A07F0202099F00
:1009E4001209B4FF600C12087C740129F9E43AFA84
:0309F40080EE2270
:1009340075A0FF7F787E3712099F75A00E75A00CF5
:100944007FD07E2012099F75A00E75A00C7F417E7A
:100954000312099F75A00E75A00C7F4112099F75A3
:0A096400A00A75A0087F4102099F58
:10096E001209347F281209987F0C1209987F0612FB
:10097E0009987F011208DA7FDC7E0512099F7F80BD
:0A098E001208DA7FDC7E0502099FE3
:10080000758901E4F58CF58A12096E7BFF7A097906
:10081000CD1209E47FC01208DA7F0A7E001209F7C0
:100820007A0979D71209E4750864E50875F00A8435
:1008300085F009E50875F00A84F50875F00A8485E5
:10084000F00AE50875F00A84F50B74302509F509FE
:100850007430250AF50A7430250BF50B7F8A1208CF
:10086000DAAF0B12087CAF0A12087CAF0912087CC1
:0C0870007F8E1208DA7F4312087C80ABF8
:1009B400BB010689828A83E0225002E722BBFE0241
:0909C400E32289828A83E4932274
:00000001FF
