:03000000020930C2
:0C093000787FE4F6D8FD75811B02097782
:0C0A23000A10C0F9A4B0999282F88090EB
:100A1100E4FDFCC3ED9FEC9E50070DBD00010C8071
:010A2100F2E2
:010A220022B1
:1008000075A884D28A751A00751B0AAE1AAF1B7CB4
:10081000037DE81209BC8E088F09AE1AAF1B7C035A
:100820007DE81209BCAA04AB057D647C00AF03AE71
:10083000021209BC8E0E8F0F7D647C00AF03AE02E6
:100840001209BCAA04AB057D0A7C00AF03AE0212FC
:1008500009BC8E0C8F0D7D0A7C00AF03AE0212091D
:10086000BC8C0A8D0B7410250BF8E6F58075900191
:100870007F0A7E00120A117410250DF8E6F58075C6
:100880009002120A117410250FF8E6F58075900495
:10089000120A1174102509F8E6F580759008120AFD
:0308A0001180C202
:030013000208A33D
:1008A300C0E0C0F0C0D075D000C000C002C003C01B
:1008B30004C005C006C007051BE51B7002051AAE80
:1008C3001AFF7C037DE81209BC8E088F09AE1AAFAC
:1008D3001B7C037DE81209BCAA04AB057D647C0084
:1008E300AF03AE021209BC8E0E8F0F7D647C00AF86
:1008F30003AE021209BCAA04AB057D0A7C00AF0358
:10090300AE021209BC8E0C8F0D7D0A7C00AF03AEC4
:10091300021209BC8C0A8D0BD007D006D005D00477
:0D092300D003D002D000D0D0D0F0D0E03210
:10093C00020800E493A3F8E493A34003F68001F2C9
:10094C0008DFF48029E493A3F85407240CC8C333BC
:10095C00C4540F4420C8834004F456800146F6DF8B
:10096C00E4800B0102040810204080900A23E47EEE
:10097C00019360BCA3FF543F30E509541FFEE49380
:10098C00A360010ECF54C025E060A840B8E493A347
:10099C00FAE493A3F8E493A3C8C582C8CAC583CA72
:1009AC00F0A3C8C582C8CAC583CADFE9DEE780BE2A
:010A2F0000C6
:1009BC00BC000BBE0029EF8DF084FFADF022E4CC1F
:1009CC00F875F008EF2FFFEE33FEEC33FCEE9DECE8
:1009DC00984005FCEE9DFE0FD5F0E9E4CEFD22ED2E
:1009EC00F8F5F0EE8420D21CFEADF075F008EF2F78
:1009FC00FFED33FD4007985006D5F0F222C398FD69
:050A0C000FD5F0EA2205
:00000001FF
