:030000000208797A
:0C087900787FE4F6D8FD75810E02083788
:10080000E4750B01F50AF509F508E47F887E13FD10
:10081000FCAB0BAA0AA909A808D31208685017E56F
:100820000B2401F50BE4350AF50AE43509F509E472
:060830003508F50880D434
:01083600229F
:10083700750EEF750C00750D01850EA0120800AF3F
:100847000E7801EF08800123D8FDF50E050DE50DA3
:100857007002050CD39408E50C6480948040DA801C
:01086700CFC1
:10086800EB9FF5F0EA9E42F0E99D42F0E89C45F0E6
:01087800225D
:00000001FF
