:03000000020A7879
:0C0A7800787FE4F6D8FD758107020800C5
:0A0A84004469614261792E766E002C
:100A6600E4FDFCC3ED9FEC9E50070DBD00010C801C
:010A7600F28D
:010A7700225C
:070A1E001209127F287E007F
:100A2500C3E49FFFE49EF58CEFF58AD28C308DFDF3
:040A3500C28DC28C20
:010A3900229A
:10091200AD07ED54F0FF3395E0FEEF7802CEA2E78B
:1009220013CE13D8F84402F5A07F017E00120A25E7
:10093200ED54F0FF3395E0FEEF7802CEA2E713CE3E
:1009420013D8F8F5A07F027E00120A25ED540F2578
:10095200E025E04402F5A07F01120A25ED540F259F
:0A096200E025E0F5A07F02020A255F
:1008B400AD07ED54F0FF3395E0FEEF7802CEA2E7EA
:1008C40013CE13D8F84403F5A07F017E00120A2545
:1008D400ED54F0FF3395E0FEEF7802CEA2E713CE9D
:1008E40013D8F84401F5A07F027E00120A25ED54C6
:1008F4000F25E025E04403F5A07F01120A25ED54FD
:0E0904000F25E025E04401F5A07F02020A2540
:100A5300120A3AFF600C1208B4740129F9E43AFA55
:030A630080EE2200
:10096C0075A0FF7F787E37120A2575A00E75A00C36
:10097C007FD07E20120A2575A00E75A00C7F417EBB
:10098C0003120A2575A00E75A00C7F41120A25755D
:0A099C00A00A75A0087F41020A2599
:1009A60012096C7F28120A1E7F0C120A1E7F06127D
:1009B6000A1E7F011209127FDC7E05120A257F803E
:0A09C6001209127FDC7E05020A25EB
:1009FA00C2B4758640E5AA548060FA8F86E5AA5487
:100A0A008060FA8D86E5AA548060FAD2B47F057EAA
:040A1A0000020A6666
:1009D000C2B4758641E5AA548060FA8F86E5AA54B0
:1009E0008060FAE4F586E5AA548060FAAB86D2B45A
:0909F0007F057E00120A66AF03C8
:0109F90022DB
:10080000758901E4F58CF58A75D551D2B4C2B77FEC
:100810000AFE120A25D2B71209A67BFF7A0A79844A
:10082000120A537FC01209127F0A7E00120A667DE7
:10083000281209FAE4FDFF1209FAE4FD7F0112090A
:10084000FAE4FD7F131209FAE4FD7F121209FAE4BB
:10085000FAEAC394E17480948050F4AD027F1212DE
:1008600009FAC374FF9AFD7F131209FA7F12120965
:10087000D0AC07E4FBEBC39408748094805017EC71
:100880005480648070047F3180027F301208B4ECA1
:1008900025E0FC0B80DF7FC0120912E4FBEBC39460
:1008A0003274809480500A7F8D7E20120A250B803E
:0408B000EC0A809D31
:100A3A00BB010689828A83E0225002E722BBFE02BA
:090A4A00E32289828A83E49322ED
:00000001FF
